:100000000C9456000C9460000C9460000C946000FA
:100010000C9460000C9460000C9460000C946000E0
:100020000C9460000C9460000C9460000C946000D0
:100030000C9460000C9460000C9460000C946000C0
:100040000C9460000C9460000C9460000C946000B0
:100050000C9460000C9460000C9460000C946000A0
:100060000C9460000C9460000C9460000C94600090
:100070000C9460000C9460000C9460000C94600080
:100080000C9460000C9460000C9460000C94600070
:100090000C9460000C9460000C9460000C94600060
:1000A0000C9460000C9460000C94600011241FBE3E
:1000B000CFEFDAE0DEBFCDBF0E9462000C9480007B
:1000C0000C94000080E880936100109261003F9AD8
:1000D000479A80E197E220E931E0F9013197F1F7A1
:1000E0000197D9F720E931E03F9A88B1805888B963
:1000F00080E197E2F9013197F1F70197D9F7F4CF51
:04010000F894FFCFA1
:00000001FF
